:100000000C94E0000C9408010C9408010C94080175
:100010000C9408010C9408010C9408010C9408013C
:100020000C9408010C9408010C9408010C9408012C
:100030000C9408010C9408010C9408010C9408011C
:100040000C94A9030C9408010C9408010C94080169
:100050000C9408010C9408010C9408010C940801FC
:100060000C9408010C94080100407A10F35A00A087
:10007000724E18090010A5D4E80000E87648170071
:1000800000E40B54020000CA9A3B000000E1F505B1
:10009000000080969800000040420F000000A086FB
:1000A00001000000102700000000E803000000002D
:1000B0006400000000000A000000000001000000D1
:1000C00000002C76D888DC674F0823DFC1DFAE59EB
:1000D000E1B1B796E5E3E453C63AE651997696E87E
:1000E000E6C28426EB898C9B62ED407C6FFCEFBC02
:1000F0009C9F40F2BAA56FA5F490055A2AF75C932D
:100100006B6CF9676DC11BFCE0E40D47FEF520E662
:10011000B500D0ED902E0300943577050080841E45
:10012000080000204E0A000000C80C333333330FA0
:10013000986E12831141EF8D2114893BE65516CF3D
:10014000FEE6DB18D1844B381BF77C1D901DA4BB49
:10015000E424203284725E228100C9F124ECA1E5FE
:100160003D2700000000240027002A0000000000B6
:10017000250028002B000000000023002600290095
:10018000040404040404040402020202020203033D
:100190000303030301020408102040800102040845
:1001A00010200102040810200000000800020100D5
:1001B000000304070000000000000000FF070E0815
:1001C00011241FBECFEFD8E0DEBFCDBF21E0AEE2ED
:1001D000B1E001C01D92A335B207E1F711E0A0E044
:1001E000B1E0E2E4FEE102C005900D92AE32B1074B
:1001F000D9F710E0CFEDD0E004C02197FE010E94B6
:10020000070DCE3DD107C9F70E94F3030C94140FDC
:100210000C940000833081F028F4813099F0823012
:10022000A1F008958730A9F08830B9F08430D1F476
:10023000809180008F7D03C0809180008F778093B4
:100240008000089584B58F7702C084B58F7D84BD0A
:1002500008958091B0008F7703C08091B0008F7DAA
:100260008093B00008951F93CF93DF93282F30E041
:10027000F901E855FE4F8491F901EC56FE4FD491F7
:10028000F901E058FE4FC491CC23C9F0162F81111B
:100290000E940A01EC2FF0E0EE0FFF1FE459FE4F21
:1002A000A591B4918FB7F894111105C09C91ED2FD1
:1002B000E095E92302C0EC91ED2BEC938FBFDF9129
:1002C000CF911F910895CF93DF9390E0FC01EC56FE
:1002D000FE4F2491FC01E058FE4F8491882361F188
:1002E00090E0880F991FFC01EE59FE4FC591D49103
:1002F000FC01E459FE4FA591B491611109C09FB76B
:10030000F8948881209582238883EC912E230BC05A
:10031000623061F49FB7F8943881822F80958323EF
:100320008883EC912E2B2C939FBF06C08FB7F89437
:10033000E8812E2B28838FBFDF91CF9108953FB79F
:10034000F8948091340190913501A0913601B091DB
:10035000370126B5A89B05C02F3F19F00196A11DB6
:10036000B11D3FBFBA2FA92F982F8827820F911D4B
:10037000A11DB11DBC01CD0142E0660F771F881F92
:10038000991F4A95D1F708958F929F92AF92BF928D
:10039000CF92DF92EF92FF926B017C010E949F014E
:1003A0004B015C01C114D104E104F104F1F00E949D
:1003B0009F01DC01CB0188199909AA09BB09883E74
:1003C0009340A105B10570F321E0C21AD108E108FC
:1003D000F10888EE880E83E0981EA11CB11CC114A0
:1003E000D104E104F10419F7DDCFFF90EF90DF9025
:1003F000CF90BF90AF909F908F900895EF92FF9213
:100400001F93CF93DF937C01162F61E082E10E945E
:10041000330160E083E10E943301C0E0D0E0970146
:100420008C2F0C2E02C0359527950A94E2F7622F87
:1004300061700E9433012196C830D10581F760E0D8
:1004400081E10E9433016AE070E080E090E00E9468
:10045000C40161E081E10E94330160E082E10E9419
:10046000330160E083E10E943301612F86E00E9446
:10047000330161E087E00E94330160E081E10E9486
:1004800033016AE070E080E090E00E94C40161E026
:1004900081E10E943301612F86E00E94330160E018
:1004A00087E00E94330160E081E10E9433016AE04D
:1004B00070E080E090E00E94C40161E081E1DF91A2
:1004C000CF911F91FF90EF900C9433010F931F93E6
:1004D000CF93DF938C01C0E0D0E0D80114968D91CA
:1004E0009C911597C817D90720F4ED91FC9130978E
:1004F00029F410922E01EEE2F1E002C0EC0FFD1F94
:10050000808161E070E0082E000C990B0E94FE01D2
:1005100061E070E080E090E00E94C4012196C83064
:10052000D105D9F661E070E080E090E0DF91CF91F5
:100530001F910F910C94C401FC01808191810C9456
:10054000A20D0F931F93CF93DF93EC0188819981C4
:10055000009729F02A813B812617370788F48B0101
:100560006F5F7F4F0E943A0E009761F099838883F6
:100570001B830A832C813D81232B11F4FC01108203
:1005800081E001C080E0DF91CF911F910F9108952C
:10059000EF92FF920F931F93CF93DF93CDB7DEB708
:1005A00028970FB6F894DEBF0FBECDBF4AE09E017C
:1005B0002F5F3F4F7901B9010E943208F701019086
:1005C0000020E9F73197EE19FF0900914D011091D4
:1005D0004E013097D1F00E0F1F1FB80189E491E052
:1005E0000E94A102882391F02091490130914A0193
:1005F00080914D0190914E01B701820F931F0E948F
:100600000D0F10934E0100934D0181E028960FB617
:10061000F894DEBF0FBECDBFDF91CF911F910F9138
:10062000FF90EF900895EF92FF920F931F93CF9357
:10063000DF93EC017B018A01BA010E94A1022881AB
:10064000398181110DC02115310519F0C9010E94B0
:10065000A20D198218821D821C821B821A8206C07A
:100660001D830C83B701C9010E940D0FCE01DF91DC
:10067000CF911F910F91FF90EF900895CF93DF934B
:10068000EC016115710559F0FB0101900020E9F7BB
:100690003197AF01461B570B0E9413030CC0888192
:1006A0009981009711F00E94A20D198218821D8273
:1006B0001C821B821A82CE01DF91CF910895EF92A6
:1006C000FF920F931F93CF93DF93CDB7DEB7A19720
:1006D0000FB6F894DEBF0FBECDBF7C01CB01BA01CF
:1006E000F70111821082138212821582148242E075
:1006F000420F8E010F5F1F4F0E941208BC01C701FD
:100700000E943E03A1960FB6F894DEBF0FBECDBF88
:10071000DF91CF911F910F91FF90EF900895FB0112
:10072000DC0111961C921E9213961C921E92129737
:1007300015961C921E9214978617970749F06081B0
:1007400071816115710521F0448155810C94130369
:1007500008951F920F920FB60F9211242F933F937B
:100760008F939F93AF93BF9380913001909131010C
:10077000A0913201B091330130912F0123E0230F7A
:100780002D3720F40196A11DB11D05C026E8230FC9
:100790000296A11DB11D20932F01809330019093EB
:1007A0003101A0933201B0933301809134019091D3
:1007B0003501A0913601B09137010196A11DB11DFF
:1007C0008093340190933501A0933601B0933701A3
:1007D000BF91AF919F918F913F912F910F900FBE3D
:1007E0000F901F901895CF93DF93CDB7DEB72C975E
:1007F0000FB6F894DEBF0FBECDBF789484B582608B
:1008000084BD84B5816084BD85B5826085BD85B5B4
:10081000816085BD80916E00816080936E00109232
:1008200081008091810082608093810080918100AD
:10083000816080938100809180008160809380003E
:100840008091B10084608093B1008091B00081609C
:100850008093B00080917A00846080937A008091C8
:100860007A00826080937A0080917A008160809320
:100870007A0080917A00806880937A001092C1009B
:1008800061E080E00E94630161E081E00E94630119
:1008900061E082E00E94630161E083E00E94630105
:1008A00061E084E00E94630161E085E00E946301F1
:1008B00061E086E00E94630161E087E00E946301DD
:1008C00061E082E10E94630161E083E10E946301D3
:1008D00061E080E10E94630161E081E10E946301C7
:1008E00000E310E08091470190914801892B09F0C5
:1008F00074C061E080E10E94330161E081E10E9407
:10090000330161E082E10E94330161E083E10E94F2
:10091000330161E087E00E94330160E086E00E94DD
:10092000330160E085E00E94330160E084E00E94D2
:10093000330161E083E00E94330160E082E00E94C5
:10094000330160E081E00E94330160E080E00E94BA
:10095000330160E081E10E9433016AE070E080E0F1
:1009600090E00E94C40161E081E10E94330160E0F7
:1009700070E088E390E00E94FE016EE170E080E0AC
:1009800090E00E94C40160E070E08EE090E00E9480
:10099000FE016EE170E080E090E00E94C40160E042
:1009A00070E081E090E00E94FE016EE170E080E086
:1009B00090E00E94C40160E070E086E090E00E9458
:1009C000FE016EE170E080E090E00E94C40181E0F1
:1009D00090E0909348018093470128E2822E21E025
:1009E000922E38E0A32E31E0B32E712C60E082E12C
:1009F0000E94330161E083E10E94330161E0F40170
:100A000081914F010E94330160E081E10E94330136
:100A100061E070E080E090E00E94C40161E081E16B
:100A20000E94330160E0872D0E94330160E081E184
:100A30000E94330161E070E080E090E00E94C40118
:100A400061E081E10E943301E12CF12C60E084E05F
:100A50000E94630160E085E00E94630160E086E03F
:100A60000E94630160E087E00E94630160E080E132
:100A70000E94330197012C5F3F4FF901E855FE4F6B
:100A80008491F901EC56FE4FD490F901E058FE4FE5
:100A9000C490CC20A1F081110E940A01EC2DF0E05D
:100AA000EE0FFF1FEA58FE4FA591B491EC91DE22A4
:100AB00091E080E009F490E0C92ED82E02C0C12C4C
:100AC000D12CD0924601C09245016AE070E080E0EE
:100AD00090E00E94C40161E080E10E94330161E086
:100AE00084E00E94630161E085E00E94630161E0AF
:100AF00086E00E94630161E087E00E946301CD28E7
:100B000009F055C2F701EE0FFF1FEA0DFB1DC08073
:100B1000D18055245394FDE3CF16D10409F0512C14
:100B200091E096012A5231092230310508F090E017
:100B300081E096012D5231092330310508F080E023
:100B4000892B19F4552009F4CCC161E070E080E0F4
:100B500090E00E94C4018EE2C816D10469F460E0FE
:100B600070E081E090E00E94FE0160E070E086E0CD
:100B700090E00E94FE0169C1552009F481C161E045
:100B800070E08DE390E00E94FE0180910001909161
:100B900001018B9709F04BC080913C01882399F0AB
:100BA0008091410190914201A0914301B091440193
:100BB000B0588093410190934201A0934301B093B8
:100BC000440110923C0120913D0130913E01409141
:100BD0003F0150914001609141017091420180912B
:100BE0004301909144010E94290CAB01BC01409348
:100BF00038015093390160933A0170933B0122E030
:100C0000CE0107960E945F03BE01695F7F4FCE0150
:100C100001960E948F03CE0101960E946602CE01CA
:100C200001960E949C02CE0107960E949C02809130
:100C30000001909101018D9709F04BC080913C011A
:100C4000882399F08091410190914201A091430144
:100C5000B0914401B0588093410190934201A09318
:100C60004301B093440110923C0120913D01309129
:100C70003E0140913F0150914001609141017091CE
:100C8000420180914301909144010E94280CAB01E4
:100C9000BC01409338015093390160933A0170933D
:100CA0003B0122E0CE0107960E945F03BE01695F0F
:100CB0007F4FCE0101960E948F03CE0101960E94C4
:100CC0006602CE0101960E949C02CE0107960E9408
:100CD0009C0280910001909101018A9709F04BC01C
:100CE00080913C01882399F08091410190914201CB
:100CF000A0914301B0914401B05880934101909379
:100D00004201A0934301B093440110923C01209111
:100D10003D0130913E0140913F0150914001609171
:100D200041017091420180914301909144010E94E0
:100D3000330BAB01BC0140933801509339016093F0
:100D40003A0170933B0122E0CE0107960E945F03B7
:100D5000BE01695F7F4FCE0101960E948F03CE01D5
:100D600001960E946602CE0101960E949C02CE016D
:100D700007960E949C0280910001909101018F973B
:100D800009F063C0C0903D01D0903E01E0903F016A
:100D9000F090400120E030E0A901C701B6010E94B7
:100DA000CD0A81110DC061E070E085E490E00E9401
:100DB000FE0161E070E080E090E00E94C40145C067
:100DC00080913C01882399F08091410190914201EA
:100DD000A0914301B0914401B05880934101909398
:100DE0004201A0934301B093440110923C01A7013A
:100DF000960160914101709142018091430190916F
:100E000044010E94950CAB01BC0140933801509302
:100E1000390160933A0170933B0122E0CE010796BD
:100E20000E945F03BE01695F7F4FCE0101960E9461
:100E30008F03CE0101960E946602CE0101960E94A8
:100E40009C02CE0107960E949C0210930101009320
:100E50000001109241011092420110924301109240
:100E6000440110923D0110923E0110923F011092F8
:100E700040016CE271E089E491E00E943E039FC072
:100E80009DE2C916D104E9F420E030E0A9016091A7
:100E900041017091420180914301909144010E946F
:100EA000CD0A81110EC061E070E08DE290E00E94F9
:100EB000FE01109301010093000181E080933C0149
:100EC00076C0D0920101C0920001C6010E94C80202
:100ED00061E070E080910001909101010E94FE01AB
:100EE00066C0C6010E94C80261E070E0C6010E94AF
:100EF000FE0162E070E080E090E00E94C401809119
:100F00000001909101010D2C000CEE08FF0820E07B
:100F100030E040E251E4C09729F5609141017091C1
:100F2000420180914301909144010E94330B1B01C7
:100F30002C01C701B6010E94D40A9B01AC01C20179
:100F4000B1010E94290C20E030E040E452E40E940C
:100F5000280C609341017093420180934301909368
:100F600044012DC060913D0170913E0180913F018F
:100F7000909140010E94330B1B012C01C701B60167
:100F80000E94D40A9B01AC01C201B1010E94290C4C
:100F900020E030E040E452E40E94280C60933D01E0
:100FA00070933E0180933F019093400108C0EFEFA2
:100FB000EE1AFE0AF4E0EF16F10409F047CD61E005
:100FC000872D0E94330160E081E10E94330161E0DE
:100FD00070E080E090E00E94C40161E081E10E9445
:100FE0003301739488E0A80EB11C94E07912FECC12
:100FF000E0E0F0E0309709F475CC099573CCE9E4B2
:10100000F1E011821082138212821582148240E074
:1010100050E06CE271E0CF010C94130389E491E09D
:101020000C949C02EF920F931F93CF93DF93E801F0
:1010300047FD02C034E001C034E1E42F440FFF0B50
:10104000F7FF03C0F195E195F109E32E022F2E2F52
:10105000AE010E945708CE01DF91CF911F910F91F1
:10106000EF900895BB274A3031F4992322F4BDE272
:10107000909581959F4F0C943E08BB27FB01552707
:10108000AA27880F991FAA1FA41710F0A41B8395E5
:101090005051B9F7A05DAA3308F0A95DA19300975C
:1010A00079F7B111B1931192CB010C94BD0A4F9213
:1010B0005F926F927F929F92AF92BF92CF92DF9298
:1010C000EF92FF920F931F93CF93DF93CDB7DEB7CD
:1010D00029970FB6F894DEBF0FBECDBF6A01122F5D
:1010E000B02E2BE3201720F0FF24F394F00E02C063
:1010F000BCE3FB2E0F2D27E0AE014F5F5F4F0E9438
:10110000E509AC018981982F9970913031F0E1FCAB
:1011100006C0E0FE06C090E205C09DE203C09BE26F
:1011200001C090E0EE2DE07183FF3CC0911102C040
:1011300083E001C084E0811718F4212F281B01C02F
:1011400020E0E1110BC0F601822F30E2882319F074
:1011500031938150FBCFC20ED11C20E0992329F09E
:10116000D6019C93F60131966F01C6010396E2FE0B
:101170000AC03EE4D6013C9341E411964C9311978A
:1011800012963C9306C03EE6F601308341E6418369
:101190003283FC01322F40E2332309F442C04193F1
:1011A0003150FACF82FF44C0911102C083E001C0E8
:1011B00084E0811718F4212F281B01C020E0E111E1
:1011C0000BC0F601822F30E2882319F03193815051
:1011D000FBCFC20ED11C20E0992329F0D6019C93AD
:1011E000F60131966F01C6010396E2FE0BC039E4A9
:1011F000D6013C933EE411963C93119736E4129647
:101200003C9307C039E6F60130833EE6318336E68B
:101210003283FC01322F40E2332319F041933150E5
:10122000FBCFFC01E20FF11D10828EEF9FEFB7C0E4
:10123000F1E0911101C0F0E06F2F70E01416150677
:1012400024F49A012F5F3F4F02C021E030E0260FC7
:10125000371FBB2029F06B2D70E06F5F7F4F02C0FE
:1012600060E070E0260F371F612F70E02617370708
:101270001CF4121B212F01C020E03E2D387159F4BF
:10128000D601322F60E2332319F06D933150FBCF3A
:10129000C20ED11C20E0FF2331F0D6019C93B60191
:1012A0006F5F7F4F6B01E1110BC0F601922F30E3AE
:1012B000992319F031939150FBCFC20ED11C20E03D
:1012C0009F2D940F3A81782F7071A72E84FF03C051
:1012D000313309F49150191624F4993018F098E03C
:1012E00001C091E0E42F852F57FF02C0E0E080E0CD
:1012F0006E2F782FE0E0F0E0AEE29A2E3A01691A04
:1013000071082A01461A570A0B2D10E01195019514
:1013100011096F3F8FEF780729F4D6019C92C6011F
:1013200001966C014617570784F0661677066CF431
:101330007F01E40CF51CA1E0B0E0AC0FBD1FEA0E8C
:10134000FB1ED7011196BC9002C090E3B92E6150EC
:1013500071093196C60101967C016017710724F06E
:10136000D601BC926C01D5CF6417750741F43633B2
:1013700020F4353321F4A11002C081E3B82EF60128
:10138000B082F701822F90E2882319F09193815067
:10139000FBCFF701E20FF11D108280E090E029966B
:1013A0000FB6F894DEBF0FBECDBFDF91CF911F9176
:1013B0000F91FF90EF90DF90CF90BF90AF909F90F4
:1013C0007F906F905F904F900895283008F027E04D
:1013D0003327DA01990F311D87FD91600096610571
:1013E000710539F432602E5F3D9330E32A95E1F7C1
:1013F00008959F3F30F080387105610509F03C5F2A
:101400003C5F3D93913008F08068911DDF93CF934E
:101410001F930F93FF92EF92192F987F9695E92FC4
:1014200096959695E90FFF27EE53FF4F992733279F
:10143000EE24FF24A701E70105900894079428F4FF
:10144000360FE71EF81E491F511D660F771F881FB4
:10145000991F0694A1F70590079428F4E70EF81E4B
:10146000491F561FC11D770F881F991F661F0694BD
:10147000A1F70590079428F4F80E491F561FC71FBF
:10148000D11D880F991F661F771F0694A1F705903D
:10149000079420F4490F561FC71FD81F990F661FC6
:1014A000771F881F0694A9F784911095177041F053
:1014B000D695C79557954795F794E7941A95C1F730
:1014C000E8E6F0E068941590159135916591959155
:1014D00005907FE27395E118F10A430B560BC90B97
:1014E000D009C0F7E10CF11E431F561FC91FD01DC4
:1014F0007EF4703311F48A95E6CFE894015030F011
:10150000080F0AF40027021708F4202F2395022F52
:101510007A3328F079E37D932A95E9F710C07D931B
:101520002A9589F606949795679537951795179498
:10153000E118F10A430B560BC90BD00998F023951B
:101540007E9173957A3308F070E37C932013B8F79B
:101550007E9170617D9330F0839571E37D9370E3AC
:101560002A95E1F71124EF90FF900F911F91CF91F1
:10157000DF91992787FD90950895DC01FC01672F85
:1015800071917723E1F7329704C07C916D9370835A
:101590006291AE17BF07C8F308950E940F0B08F4BD
:1015A00081E00895E89409C097FB3EF490958095FA
:1015B000709561957F4F8F4F9F4F9923A9F0F92F19
:1015C00096E9BB279395F695879577956795B79597
:1015D000F111F8CFFAF4BB0F11F460FF1BC06F5F7D
:1015E0007F4F8F4F9F4F16C0882311F096E911C08F
:1015F000772321F09EE8872F762F05C0662371F0B0
:1016000096E8862F70E060E02AF09A95660F771FC3
:10161000881FDAF7880F9695879597F90895990F9F
:101620000008550FAA0BE0E8FEEF16161706E807AC
:10163000F907C0F012161306E407F50798F0621BCD
:10164000730B840B950B39F40A2661F0232B242BA2
:10165000252B21F408950A2609F4A140A6958FEFC1
:10166000811D811D08950E94460B0C94B70B0E94AA
:10167000A90B38F00E94B00B20F0952311F00C94C8
:10168000A00B0C94A60B11240C94EB0B0E94C80B1E
:1016900070F3959FC1F3950F50E0551F629FF001C5
:1016A000729FBB27F00DB11D639FAA27F00DB11DDE
:1016B000AA1F649F6627B00DA11D661F829F222767
:1016C000B00DA11D621F739FB00DA11D621F839FEE
:1016D000A00D611D221F749F3327A00D611D231FC4
:1016E000849F600D211D822F762F6A2F11249F5712
:1016F00050409AF0F1F088234AF0EE0FFF1FBB1F15
:10170000661F771F881F91505040A9F79E3F5105D3
:1017100080F00C94A00B0C94EB0B5F3FE4F3983E2D
:10172000D4F3869577956795B795F795E7959F5F7D
:10173000C1F7FE2B880F911D9695879597F908950F
:1017400097F99F6780E870E060E008959FEF80EC74
:10175000089500240A941616170618060906089517
:1017600000240A9412161306140605060895092E7D
:101770000394000C11F4882352F0BB0F40F4BF2BEC
:1017800011F460FF04C06F5F7F4F8F4F9F4F08952C
:1017900057FD9058440F551F59F05F3F71F0479522
:1017A000880F97FB991F61F09F3F79F08795089507
:1017B000121613061406551FF2CF4695F1DF08C026
:1017C000161617061806991FF1CF86957105610543
:1017D00008940895E894BB2766277727CB0197F9EB
:1017E00008952F923F924F925F926F927F928F92C5
:1017F0009F92AF92BF92CF92DF92EF92FF920F93A0
:101800001F93CF93DF93CDB7DEB7CA1BDB0B0FB6A9
:10181000F894DEBF0FBECDBF09942A883988488866
:101820005F846E847D848C849B84AA84B984C884FC
:10183000DF80EE80FD800C811B81AA81B981CE0FF3
:10184000D11D0FB6F894DEBF0FBECDBFED010895D8
:101850005058BB27AA270E94400C0C94B70B0E943B
:10186000A90B38F00E94B00B20F039F49F3F19F417
:1018700026F40C94A60B0EF4E095E7FB0C94A00B59
:10188000E92F0E94C80B58F3BA1762077307840741
:10189000950720F079F4A6F50C94EA0B0EF4E09588
:1018A0000B2EBA2FA02D0B01B90190010C01CA011A
:1018B000A0011124FF27591B99F0593F50F4503EC5
:1018C00068F11A16F040A22F232F342F4427585FB7
:1018D000F3CF469537952795A795F0405395C9F7CF
:1018E0007EF41F16BA0B620B730B840BBAF0915087
:1018F000A1F0FF0FBB1F661F771F881FC2F70EC026
:10190000BA0F621F731F841F48F4879577956795F8
:10191000B795F7959E3F08F0B0CF9395880F08F0E4
:101920009927EE0F9795879508950E94A90C0C941E
:10193000B70B0E94B00B58F00E94A90B40F029F49D
:101940005F3F29F00C94A00B51110C94EB0B0C94FD
:10195000A60B0E94C80B68F39923B1F3552391F3AA
:10196000951B550BBB27AA2762177307840738F00E
:101970009F5F5F4F220F331F441FAA1FA9F335D06B
:101980000E2E3AF0E0E832D091505040E695001C1F
:10199000CAF72BD0FE2F29D0660F771F881FBB1FD9
:1019A000261737074807AB07B0E809F0BB0B802DB7
:1019B000BF01FF2793585F4F3AF09E3F510578F0E3
:1019C0000C94A00B0C94EB0B5F3FE4F3983ED4F324
:1019D000869577956795B795F7959F5FC9F7880FB7
:1019E000911D9695879597F90895E1E0660F771F09
:1019F000881FBB1F621773078407BA0720F0621B9A
:101A0000730B840BBA0BEE1F88F7E0950895EE0F69
:101A1000FF1F0590F491E02D0994CF93DF9382305E
:101A2000910510F482E090E0E0915101F0915201B3
:101A300020E030E0C0E0D0E0309711F140815181EA
:101A400048175907C0F04817590761F482819381FC
:101A5000209719F09B838A832BC090935201809327
:101A6000510126C02115310519F04217530718F40A
:101A70009A01BE01DF01EF010280F381E02DDCCF8E
:101A80002115310509F1281B390B2430310590F45B
:101A900012968D919C9113976115710521F0FB01B0
:101AA0009383828304C09093520180935101FD017E
:101AB000329644C0FD01E20FF31F819391932250AF
:101AC00031092D933C933AC020914F013091500140
:101AD000232B41F4209104013091050130935001F2
:101AE00020934F012091020130910301211531050E
:101AF00041F42DB73EB74091060150910701241BD8
:101B0000350BE0914F01F0915001E217F307A0F47B
:101B10002E1B3F0B2817390778F0AC014E5F5F4F43
:101B20002417350748F04E0F5F1F50935001409324
:101B30004F018193919302C0E0E0F0E0CF01DF918B
:101B4000CF9108950F931F93CF93DF93009709F4DC
:101B50008CC0FC01329713821282009151011091C6
:101B600052010115110581F420813181820F931FEB
:101B700020914F01309150012817390779F5F093E2
:101B80005001E0934F0171C0D80140E050E0AE1722
:101B9000BF0750F412962D913C911397AD0121157A
:101BA000310509F1D901F3CF9D01DA013383228395
:101BB00060817181860F971F8217930769F4EC018A
:101BC00028813981260F371F2E5F3F4F31832083B5
:101BD0008A819B8193838283452B29F4F093520160
:101BE000E093510142C01396FC93EE931297ED01DE
:101BF000499159919E01240F351FE217F30771F4A3
:101C000080819181840F951F029611969C938E93EB
:101C10008281938113969C938E931297E0E0F0E07B
:101C2000D80112968D919C911397009719F0F801A5
:101C30008C01F6CF8D919C9198012E5F3F4F820FC2
:101C4000931F20914F01309150012817390769F4F3
:101C5000309729F4109252011092510102C0138260
:101C600012821093500100934F01DF91CF911F9189
:101C70000F910895A0E0B0E0E0E4FEE00C94F50BD5
:101C8000EC01009721F4CB010E940D0DB8C0FC01BE
:101C9000E60FF71F9C0122503109E217F30708F401
:101CA000ACC0D9010D911C91119706171707B0F020
:101CB0000530110508F49FC0C801049786179707DF
:101CC00008F499C002501109061B170B01931193D8
:101CD0006D937C93CF010E94A20D8DC05B01A01A71
:101CE000B10A4C01800E911EA0915101B091520198
:101CF00040E050E0E12CF12C109709F44AC0A815FF
:101D0000B905D1F56D907C901197630182E0C80E02
:101D1000D11CCA14DB0480F1A3014A195B096A01D2
:101D200082E0C80ED11C1296BC9012971396AC910B
:101D3000B5E0CB16D10440F0B282A3835183408337
:101D4000D9016D937C930AC00E5F1F4FC301800FB2
:101D5000911FF90191838083EB2DFA2FE114F10497
:101D600031F0D7011396FC93EE93129744C0F09391
:101D70005201E09351013FC08D919C9111974817FA
:101D8000590708F4AC017D0112960D90BC91A02D6D
:101D9000B3CF80914F019091500188159905E1F4DE
:101DA00046175707C8F480910201909103010097EC
:101DB00041F48DB79EB74091060150910701841BF5
:101DC000950BE817F907C8F4F0935001E0934F0121
:101DD000F901718360830FC0CB010E940D0D7C015E
:101DE000009759F0A801BE010E94040FCE010E9485
:101DF000A20DC70104C0CE0102C080E090E0CDB7C3
:101E0000DEB7EEE00C94110CFB01DC0102C0019086
:101E10000D9241505040D8F70895FB01DC0101902C
:101E20000D920020E1F7089510E0CFEDD0E004C05E
:101E3000FE010E94070D2196C03ED107C9F7F89414
:021E4000FFCFD2
:101E420030000000530180003700380039002F00B5
:101E52003400350036002A003100320033002D00F4
:0E1E62002E0030003D002B00000102030000A6
:00000001FF
